{
  "contractName": "DataCellarRegistry",
  "abi": [
    {
      "anonymous": false,
      "inputs": [
        {
          "indexed": true,
          "internalType": "address",
          "name": "user",
          "type": "address"
        }
      ],
      "name": "UserRegistered",
      "type": "event"
    },
    {
      "anonymous": false,
      "inputs": [
        {
          "indexed": true,
          "internalType": "address",
          "name": "user",
          "type": "address"
        }
      ],
      "name": "UserUnregistered",
      "type": "event"
    },
    {
      "inputs": [
        {
          "internalType": "address",
          "name": "_userAddress",
          "type": "address"
        }
      ],
      "name": "registerUser",
      "outputs": [],
      "stateMutability": "nonpayable",
      "type": "function"
    },
    {
      "inputs": [
        {
          "internalType": "address",
          "name": "_userAddress",
          "type": "address"
        }
      ],
      "name": "unregisterUser",
      "outputs": [],
      "stateMutability": "nonpayable",
      "type": "function"
    },
    {
      "inputs": [
        {
          "internalType": "address",
          "name": "_userAddress",
          "type": "address"
        }
      ],
      "name": "isUserRegistered",
      "outputs": [
        {
          "internalType": "bool",
          "name": "",
          "type": "bool"
        }
      ],
      "stateMutability": "view",
      "type": "function",
      "constant": true
    }
  ],
  "bytecode": "0x608060405234801561000f575f80fd5b506106848061001d5f395ff3fe608060405234801561000f575f80fd5b506004361061003f575f3560e01c8063163f7522146100435780632199d5cd1461007357806321f2ca3b1461008f575b5f80fd5b61005d60048036038101906100589190610482565b6100ab565b60405161006a91906104c7565b60405180910390f35b61008d60048036038101906100889190610482565b6100fc565b005b6100a960048036038101906100a49190610482565b610291565b005b5f805f8373ffffffffffffffffffffffffffffffffffffffff1673ffffffffffffffffffffffffffffffffffffffff1681526020019081526020015f205f9054906101000a900460ff169050919050565b808073ffffffffffffffffffffffffffffffffffffffff163373ffffffffffffffffffffffffffffffffffffffff161461016b576040517f08c379a000000000000000000000000000000000000000000000000000000000815260040161016290610560565b60405180910390fd5b815f808273ffffffffffffffffffffffffffffffffffffffff1673ffffffffffffffffffffffffffffffffffffffff1681526020019081526020015f205f9054906101000a900460ff16156101f5576040517f08c379a00000000000000000000000000000000000000000000000000000000081526004016101ec906105c8565b60405180910390fd5b60015f808573ffffffffffffffffffffffffffffffffffffffff1673ffffffffffffffffffffffffffffffffffffffff1681526020019081526020015f205f6101000a81548160ff0219169083151502179055508273ffffffffffffffffffffffffffffffffffffffff167f54db7a5cb4735e1aac1f53db512d3390390bb6637bd30ad4bf9fc98667d9b9b960405160405180910390a2505050565b808073ffffffffffffffffffffffffffffffffffffffff163373ffffffffffffffffffffffffffffffffffffffff1614610300576040517f08c379a00000000000000000000000000000000000000000000000000000000081526004016102f790610560565b60405180910390fd5b815f808273ffffffffffffffffffffffffffffffffffffffff1673ffffffffffffffffffffffffffffffffffffffff1681526020019081526020015f205f9054906101000a900460ff16610389576040517f08c379a000000000000000000000000000000000000000000000000000000000815260040161038090610630565b60405180910390fd5b5f805f8573ffffffffffffffffffffffffffffffffffffffff1673ffffffffffffffffffffffffffffffffffffffff1681526020019081526020015f205f6101000a81548160ff0219169083151502179055508273ffffffffffffffffffffffffffffffffffffffff167f69c4cef1aa574ae7852ac8b784ab60926951c604b70049150e4091759ea9807660405160405180910390a2505050565b5f80fd5b5f73ffffffffffffffffffffffffffffffffffffffff82169050919050565b5f61045182610428565b9050919050565b61046181610447565b811461046b575f80fd5b50565b5f8135905061047c81610458565b92915050565b5f6020828403121561049757610496610424565b5b5f6104a48482850161046e565b91505092915050565b5f8115159050919050565b6104c1816104ad565b82525050565b5f6020820190506104da5f8301846104b8565b92915050565b5f82825260208201905092915050565b7f43616e206f6e6c7920706572666f726d20616374696f6e206f6e20796f7572735f8201527f656c660000000000000000000000000000000000000000000000000000000000602082015250565b5f61054a6023836104e0565b9150610555826104f0565b604082019050919050565b5f6020820190508181035f8301526105778161053e565b9050919050565b7f5573657220616c726561647920726567697374657265640000000000000000005f82015250565b5f6105b26017836104e0565b91506105bd8261057e565b602082019050919050565b5f6020820190508181035f8301526105df816105a6565b9050919050565b7f55736572206e6f742072656769737465726564000000000000000000000000005f82015250565b5f61061a6013836104e0565b9150610625826105e6565b602082019050919050565b5f6020820190508181035f8301526106478161060e565b905091905056fea264697066735822122054b469f9c74f55a4fe343151e62311d5ef94b3cc010305f399fa52957fbd82c364736f6c63430008140033",
  "immutableReferences": {},
  "source": "// SPDX-License-Identifier: MIT\npragma solidity ^0.8.2;\n\ncontract DataCellarRegistry {\n\n    mapping(address => bool) private registeredUsers;\n\n    event UserRegistered(address indexed user);\n    event UserUnregistered(address indexed user);\n\n    modifier onlySelf(address _userAddress) {\n        require(msg.sender == _userAddress, \"Can only perform action on yourself\");\n        _;\n    }\n\n    modifier onlyUnregistered(address _userAddress) {\n        require(!registeredUsers[_userAddress], \"User already registered\");\n        _;\n    }\n\n    modifier onlyRegistered(address _userAddress) {\n        require(registeredUsers[_userAddress], \"User not registered\");\n        _;\n    }\n\n    function registerUser(address _userAddress) external onlySelf(_userAddress) onlyUnregistered(_userAddress) {\n        // Registra l'utente\n        registeredUsers[_userAddress] = true;\n        emit UserRegistered(_userAddress);\n    }\n\n    function unregisterUser(address _userAddress) external onlySelf(_userAddress) onlyRegistered(_userAddress) {\n        // Rimuovi l'utente dalla registrazione\n        registeredUsers[_userAddress] = false;\n        emit UserUnregistered(_userAddress);\n    }\n\n    function isUserRegistered(address _userAddress) external view returns (bool) {\n        // Verifica se un utente  registrato\n        return registeredUsers[_userAddress];\n    }\n}",
  "sourcePath": "/home/user/infura-project/contracts/DataCellarRegistry.sol",
  "compiler": {
    "name": "solc",
    "version": "0.8.20+commit.a1b79de6.Emscripten.clang"
  },
  "schemaVersion": "3.4.16",
  "updatedAt": "2023-12-04T16:17:22.752Z",
  "networkType": "ethereum",
  "devdoc": {
    "kind": "dev",
    "methods": {},
    "version": 1
  },
  "userdoc": {
    "kind": "user",
    "methods": {},
    "version": 1
  }
}