{
  "contractName": "Donations",
  "abi": [
    {
      "inputs": [],
      "stateMutability": "nonpayable",
      "type": "constructor"
    },
    {
      "inputs": [],
      "name": "owner",
      "outputs": [
        {
          "internalType": "address",
          "name": "",
          "type": "address"
        }
      ],
      "stateMutability": "view",
      "type": "function",
      "constant": true
    },
    {
      "inputs": [],
      "name": "donate",
      "outputs": [],
      "stateMutability": "payable",
      "type": "function",
      "payable": true
    },
    {
      "inputs": [],
      "name": "withdraw",
      "outputs": [],
      "stateMutability": "payable",
      "type": "function",
      "payable": true
    }
  ],
  "bytecode": "0x608060405234801561001057600080fd5b50336000806101000a81548173ffffffffffffffffffffffffffffffffffffffff021916908373ffffffffffffffffffffffffffffffffffffffff160217905550610526806100606000396000f3fe6080604052600436106100345760003560e01c80633ccfd60b146100395780638da5cb5b14610043578063ed88c68e1461006e575b600080fd5b610041610078565b005b34801561004f57600080fd5b506100586101fe565b60405161006591906102a8565b60405180910390f35b610076610222565b005b60008054906101000a900473ffffffffffffffffffffffffffffffffffffffff1673ffffffffffffffffffffffffffffffffffffffff163373ffffffffffffffffffffffffffffffffffffffff1614610106576040517f08c379a00000000000000000000000000000000000000000000000000000000081526004016100fd90610320565b60405180910390fd5b60004790506000811161014e576040517f08c379a00000000000000000000000000000000000000000000000000000000081526004016101459061038c565b60405180910390fd5b60003373ffffffffffffffffffffffffffffffffffffffff1682604051610174906103dd565b60006040518083038185875af1925050503d80600081146101b1576040519150601f19603f3d011682016040523d82523d6000602084013e6101b6565b606091505b50509050806101fa576040517f08c379a00000000000000000000000000000000000000000000000000000000081526004016101f19061043e565b60405180910390fd5b5050565b60008054906101000a900473ffffffffffffffffffffffffffffffffffffffff1681565b60003411610265576040517f08c379a000000000000000000000000000000000000000000000000000000000815260040161025c906104d0565b60405180910390fd5b565b600073ffffffffffffffffffffffffffffffffffffffff82169050919050565b600061029282610267565b9050919050565b6102a281610287565b82525050565b60006020820190506102bd6000830184610299565b92915050565b600082825260208201905092915050565b7f4f6e6c7920746865206f776e65722063616e2077697468647261772100000000600082015250565b600061030a601c836102c3565b9150610315826102d4565b602082019050919050565b60006020820190508181036000830152610339816102fd565b9050919050565b7f4e6f206574686572206c65667420746f20776974686472617700000000000000600082015250565b60006103766019836102c3565b915061038182610340565b602082019050919050565b600060208201905081810360008301526103a581610369565b9050919050565b600081905092915050565b50565b60006103c76000836103ac565b91506103d2826103b7565b600082019050919050565b60006103e8826103ba565b9150819050919050565b7f5472616e73666572206661696c65642e00000000000000000000000000000000600082015250565b60006104286010836102c3565b9150610433826103f2565b602082019050919050565b600060208201905081810360008301526104578161041b565b9050919050565b7f446f6e6174696f6e206e6565647320746f206265206120706f7369746976652060008201527f76616c7565000000000000000000000000000000000000000000000000000000602082015250565b60006104ba6025836102c3565b91506104c58261045e565b604082019050919050565b600060208201905081810360008301526104e9816104ad565b905091905056fea2646970667358221220fce874b3f2f41d1a13e7339e1aa12e1bef4ceecece37af533a6aa1d05a7e72f864736f6c63430008130033",
  "immutableReferences": {},
  "source": "// SPDX-License-Identifier: MIT\npragma solidity ^0.8.0;\n\ncontract Donations {\n  address public owner;\n\n  constructor() {\n    owner = msg.sender;\n  }\n\n  // Function to donate\n  function donate() public payable {\n    require(msg.value > 0, \"Donation needs to be a positive value\");\n  }\n\n  // Withdraw ether\n  function withdraw() public payable {\n    require(msg.sender == owner, \"Only the owner can withdraw!\");\n\n    uint balance = address(this).balance;\n    require(balance > 0, \"No ether left to withdraw\");\n\n    (bool success, ) = (msg.sender).call{value: balance}(\"\");\n    require(success, \"Transfer failed.\");\n  }\n}\n",
  "sourcePath": "/home/user/infura-project/contracts/Donations.sol",
  "compiler": {
    "name": "solc",
    "version": "0.8.19+commit.7dd6d404.Emscripten.clang"
  },
  "schemaVersion": "3.4.13",
  "updatedAt": "2023-11-13T16:39:17.966Z",
  "networkType": "ethereum",
  "devdoc": {
    "kind": "dev",
    "methods": {},
    "version": 1
  },
  "userdoc": {
    "kind": "user",
    "methods": {},
    "version": 1
  }
}